{"abi":[{"inputs":[{"internalType":"address","name":"tokenAddress","type":"address"}],"stateMutability":"nonpayable","type":"constructor","name":"constructor"},{"anonymous":false,"inputs":[{"indexed":true,"internalType":"address","name":"depositor","type":"address"},{"indexed":false,"internalType":"uint256","name":"amount","type":"uint256"},{"indexed":false,"internalType":"enum TokenAndEthVault.DepositType","name":"depositType","type":"uint8"}],"name":"DepositCreated","type":"event"},{"inputs":[],"name":"depositETH","outputs":[{"internalType":"bytes32","name":"","type":"bytes32"}],"stateMutability":"payable","type":"function"},{"inputs":[{"internalType":"uint256","name":"amount","type":"uint256"}],"name":"depositTokens","outputs":[{"internalType":"bytes32","name":"","type":"bytes32"}],"stateMutability":"nonpayable","type":"function"},{"inputs":[{"internalType":"bytes32","name":"","type":"bytes32"}],"name":"deposits","outputs":[{"internalType":"address","name":"depositor","type":"address"},{"internalType":"uint256","name":"amount","type":"uint256"},{"internalType":"bool","name":"isWithdrawn","type":"bool"},{"internalType":"enum TokenAndEthVault.DepositType","name":"depositType","type":"uint8"}],"stateMutability":"view","type":"function"},{"inputs":[],"name":"token","outputs":[{"internalType":"contract IERC20","name":"","type":"address"}],"stateMutability":"view","type":"function"},{"inputs":[],"name":"view_key","outputs":[{"internalType":"bytes32","name":"","type":"bytes32"}],"stateMutability":"view","type":"function"},{"inputs":[{"internalType":"bytes32","name":"key","type":"bytes32"}],"name":"withdraw","outputs":[],"stateMutability":"nonpayable","type":"function"}],"bytecode":"6080604052348015600f57600080fd5b506040516108cf3803806108cf833981016040819052602c916050565b600080546001600160a01b0319166001600160a01b0392909216919091179055607e565b600060208284031215606157600080fd5b81516001600160a01b0381168114607757600080fd5b9392505050565b6108428061008d6000396000f3fe6080604052600436106100555760003560e01c80632c67920c1461005a5780633d4dff7b146100825780638e19899e146100e5578063dd49756e14610107578063f6326fb314610127578063fc0c546a1461012f575b600080fd5b34801561006657600080fd5b5061006f610167565b6040519081526020015b60405180910390f35b34801561008e57600080fd5b506100d561009d366004610701565b60026020819052600091825260409091208054600182015491909201546001600160a01b039092169160ff8082169161010090041684565b6040516100799493929190610752565b3480156100f157600080fd5b50610105610100366004610701565b61017e565b005b34801561011357600080fd5b5061006f610122366004610701565b610397565b61006f6105da565b34801561013b57600080fd5b5060005461014f906001600160a01b031681565b6040516001600160a01b039091168152602001610079565b6003546000906101775750600090565b5060035490565b60008181526002602081905260409091209081015460ff16156101f25760405162461bcd60e51b815260206004820152602160248201527f46756e6473206861766520616c7265616479206265656e2077697468647261776044820152603760f91b60648201526084015b60405180910390fd5b60008160010154116102465760405162461bcd60e51b815260206004820152601d60248201527f4e6f206465706f73697420666f756e6420666f722074686973206b657900000060448201526064016101e9565b60028101805460ff1916600117905560006002820154610100900460ff1660018111156102755761027561071a565b0361033d57600054600182015460405163a9059cbb60e01b815233600482015260248101919091526001600160a01b039091169063a9059cbb906044016020604051808303816000875af11580156102d1573d6000803e3d6000fd5b505050506040513d601f19601f820116820180604052508101906102f59190610787565b6103395760405162461bcd60e51b8152602060048201526015602482015274151bdad95b881d1c985b9cd9995c8819985a5b1959605a1b60448201526064016101e9565b5050565b60016002820154610100900460ff16600181111561035d5761035d61071a565b03610339576001810154604051339180156108fc02916000818181858888f19350505050158015610392573d6000803e3d6000fd5b505050565b60008082116103b85760405162461bcd60e51b81526004016101e9906107b0565b6000546040516323b872dd60e01b8152336004820152306024820152604481018490526001600160a01b03909116906323b872dd906064016020604051808303816000875af115801561040f573d6000803e3d6000fd5b505050506040513d601f19601f820116820180604052508101906104339190610787565b6104775760405162461bcd60e51b8152602060048201526015602482015274151bdad95b881d1c985b9cd9995c8819985a5b1959605a1b60448201526064016101e9565b610485600180546001019055565b60006104eb3361049460015490565b6040516bffffffffffffffffffffffff19606084811b821660208401526034830184905242605484015230901b16607482015260009060880160405160208183030381529060405280519060200120905092915050565b60408051608081018252338152602080820187815260008385018181526060850182815287835260029485905295909120845181546001600160a01b0319166001600160a01b0390911617815591516001808401919091559051928201805460ff198116941515948517825595519697509395919491939261ffff1990921661ff0019909216919091179061010090849081111561058b5761058b61071a565b02179055505050600381905560405133907f38e8d4a98fe61dc78ffc6f9fa9243a138703d7e7680e33a29a4bc0ca6dea6141906105cc9086906000906107f8565b60405180910390a292915050565b60008034116105fb5760405162461bcd60e51b81526004016101e9906107b0565b610609600180546001019055565b60006106183361049460015490565b60408051608081018252338152346020808301918252600083850181815260016060860181815288845260029485905296909220855181546001600160a01b0319166001600160a01b0390911617815593518483015551918301805460ff198116931515938417825595519697509395929492939261ffff191661ff001990921691909117906101009084908111156106b3576106b361071a565b02179055505050600381905560405133907f38e8d4a98fe61dc78ffc6f9fa9243a138703d7e7680e33a29a4bc0ca6dea6141906106f49034906000906107f8565b60405180910390a2919050565b60006020828403121561071357600080fd5b5035919050565b634e487b7160e01b600052602160045260246000fd5b6002811061074e57634e487b7160e01b600052602160045260246000fd5b9052565b6001600160a01b03851681526020810184905282151560408201526080810161077e6060830184610730565b95945050505050565b60006020828403121561079957600080fd5b815180151581146107a957600080fd5b9392505050565b60208082526028908201527f4465706f73697420616d6f756e74206d7573742062652067726561746572207460408201526768616e207a65726f60c01b606082015260800190565b828152604081016107a9602083018461073056fea2646970667358221220db906c6ff151e5b68cc0bf392306f709602851aa2940429d005cd4d6063fa04e64736f6c634300081a0033","bytecodeSha1":"32f2d0f853c64da6edb72da28c2116ac37e18df4","compiler":{"evm_version":"istanbul","optimizer":{"enabled":true,"runs":200},"version":"0.8.26+commit.8a97fa7a"},"contractName":"TokenAndEthVault","language":"Solidity","natspec":{"kind":"dev","methods":{},"version":1},"opcodes":"PUSH1 0x80 PUSH1 0x40 MSTORE PUSH1 0x4 CALLDATASIZE LT PUSH2 0x55 JUMPI PUSH1 0x0 CALLDATALOAD PUSH1 0xE0 SHR DUP1 PUSH4 0x2C67920C EQ PUSH2 0x5A JUMPI DUP1 PUSH4 0x3D4DFF7B EQ PUSH2 0x82 JUMPI DUP1 PUSH4 0x8E19899E EQ PUSH2 0xE5 JUMPI DUP1 PUSH4 0xDD49756E EQ PUSH2 0x107 JUMPI DUP1 PUSH4 0xF6326FB3 EQ PUSH2 0x127 JUMPI DUP1 PUSH4 0xFC0C546A EQ PUSH2 0x12F JUMPI JUMPDEST PUSH1 0x0 DUP1 REVERT JUMPDEST CALLVALUE DUP1 ISZERO PUSH2 0x66 JUMPI PUSH1 0x0 DUP1 REVERT JUMPDEST POP PUSH2 0x6F PUSH2 0x167 JUMP JUMPDEST PUSH1 0x40 MLOAD SWAP1 DUP2 MSTORE PUSH1 0x20 ADD JUMPDEST PUSH1 0x40 MLOAD DUP1 SWAP2 SUB SWAP1 RETURN JUMPDEST CALLVALUE DUP1 ISZERO PUSH2 0x8E JUMPI PUSH1 0x0 DUP1 REVERT JUMPDEST POP PUSH2 0xD5 PUSH2 0x9D CALLDATASIZE PUSH1 0x4 PUSH2 0x701 JUMP JUMPDEST PUSH1 0x2 PUSH1 0x20 DUP2 SWAP1 MSTORE PUSH1 0x0 SWAP2 DUP3 MSTORE PUSH1 0x40 SWAP1 SWAP2 KECCAK256 DUP1 SLOAD PUSH1 0x1 DUP3 ADD SLOAD SWAP2 SWAP1 SWAP3 ADD SLOAD PUSH1 0x1 PUSH1 0x1 PUSH1 0xA0 SHL SUB SWAP1 SWAP3 AND SWAP2 PUSH1 0xFF DUP1 DUP3 AND SWAP2 PUSH2 0x100 SWAP1 DIV AND DUP5 JUMP JUMPDEST PUSH1 0x40 MLOAD PUSH2 0x79 SWAP5 SWAP4 SWAP3 SWAP2 SWAP1 PUSH2 0x752 JUMP JUMPDEST CALLVALUE DUP1 ISZERO PUSH2 0xF1 JUMPI PUSH1 0x0 DUP1 REVERT JUMPDEST POP PUSH2 0x105 PUSH2 0x100 CALLDATASIZE PUSH1 0x4 PUSH2 0x701 JUMP JUMPDEST PUSH2 0x17E JUMP JUMPDEST STOP JUMPDEST CALLVALUE DUP1 ISZERO PUSH2 0x113 JUMPI PUSH1 0x0 DUP1 REVERT JUMPDEST POP PUSH2 0x6F PUSH2 0x122 CALLDATASIZE PUSH1 0x4 PUSH2 0x701 JUMP JUMPDEST PUSH2 0x397 JUMP JUMPDEST PUSH2 0x6F PUSH2 0x5DA JUMP JUMPDEST CALLVALUE DUP1 ISZERO PUSH2 0x13B JUMPI PUSH1 0x0 DUP1 REVERT JUMPDEST POP PUSH1 0x0 SLOAD PUSH2 0x14F SWAP1 PUSH1 0x1 PUSH1 0x1 PUSH1 0xA0 SHL SUB AND DUP2 JUMP JUMPDEST PUSH1 0x40 MLOAD PUSH1 0x1 PUSH1 0x1 PUSH1 0xA0 SHL SUB SWAP1 SWAP2 AND DUP2 MSTORE PUSH1 0x20 ADD PUSH2 0x79 JUMP JUMPDEST PUSH1 0x3 SLOAD PUSH1 0x0 SWAP1 PUSH2 0x177 JUMPI POP PUSH1 0x0 SWAP1 JUMP JUMPDEST POP PUSH1 0x3 SLOAD SWAP1 JUMP JUMPDEST PUSH1 0x0 DUP2 DUP2 MSTORE PUSH1 0x2 PUSH1 0x20 DUP2 SWAP1 MSTORE PUSH1 0x40 SWAP1 SWAP2 KECCAK256 SWAP1 DUP2 ADD SLOAD PUSH1 0xFF AND ISZERO PUSH2 0x1F2 JUMPI PUSH1 0x40 MLOAD PUSH3 0x461BCD PUSH1 0xE5 SHL DUP2 MSTORE PUSH1 0x20 PUSH1 0x4 DUP3 ADD MSTORE PUSH1 0x21 PUSH1 0x24 DUP3 ADD MSTORE PUSH32 0x46756E6473206861766520616C7265616479206265656E207769746864726177 PUSH1 0x44 DUP3 ADD MSTORE PUSH1 0x37 PUSH1 0xF9 SHL PUSH1 0x64 DUP3 ADD MSTORE PUSH1 0x84 ADD JUMPDEST PUSH1 0x40 MLOAD DUP1 SWAP2 SUB SWAP1 REVERT JUMPDEST PUSH1 0x0 DUP2 PUSH1 0x1 ADD SLOAD GT PUSH2 0x246 JUMPI PUSH1 0x40 MLOAD PUSH3 0x461BCD PUSH1 0xE5 SHL DUP2 MSTORE PUSH1 0x20 PUSH1 0x4 DUP3 ADD MSTORE PUSH1 0x1D PUSH1 0x24 DUP3 ADD MSTORE PUSH32 0x4E6F206465706F73697420666F756E6420666F722074686973206B6579000000 PUSH1 0x44 DUP3 ADD MSTORE PUSH1 0x64 ADD PUSH2 0x1E9 JUMP JUMPDEST PUSH1 0x2 DUP2 ADD DUP1 SLOAD PUSH1 0xFF NOT AND PUSH1 0x1 OR SWAP1 SSTORE PUSH1 0x0 PUSH1 0x2 DUP3 ADD SLOAD PUSH2 0x100 SWAP1 DIV PUSH1 0xFF AND PUSH1 0x1 DUP2 GT ISZERO PUSH2 0x275 JUMPI PUSH2 0x275 PUSH2 0x71A JUMP JUMPDEST SUB PUSH2 0x33D JUMPI PUSH1 0x0 SLOAD PUSH1 0x1 DUP3 ADD SLOAD PUSH1 0x40 MLOAD PUSH4 0xA9059CBB PUSH1 0xE0 SHL DUP2 MSTORE CALLER PUSH1 0x4 DUP3 ADD MSTORE PUSH1 0x24 DUP2 ADD SWAP2 SWAP1 SWAP2 MSTORE PUSH1 0x1 PUSH1 0x1 PUSH1 0xA0 SHL SUB SWAP1 SWAP2 AND SWAP1 PUSH4 0xA9059CBB SWAP1 PUSH1 0x44 ADD PUSH1 0x20 PUSH1 0x40 MLOAD DUP1 DUP4 SUB DUP2 PUSH1 0x0 DUP8 GAS CALL ISZERO DUP1 ISZERO PUSH2 0x2D1 JUMPI RETURNDATASIZE PUSH1 0x0 DUP1 RETURNDATACOPY RETURNDATASIZE PUSH1 0x0 REVERT JUMPDEST POP POP POP POP PUSH1 0x40 MLOAD RETURNDATASIZE PUSH1 0x1F NOT PUSH1 0x1F DUP3 ADD AND DUP3 ADD DUP1 PUSH1 0x40 MSTORE POP DUP2 ADD SWAP1 PUSH2 0x2F5 SWAP2 SWAP1 PUSH2 0x787 JUMP JUMPDEST PUSH2 0x339 JUMPI PUSH1 0x40 MLOAD PUSH3 0x461BCD PUSH1 0xE5 SHL DUP2 MSTORE PUSH1 0x20 PUSH1 0x4 DUP3 ADD MSTORE PUSH1 0x15 PUSH1 0x24 DUP3 ADD MSTORE PUSH21 0x151BDAD95B881D1C985B9CD9995C8819985A5B1959 PUSH1 0x5A SHL PUSH1 0x44 DUP3 ADD MSTORE PUSH1 0x64 ADD PUSH2 0x1E9 JUMP JUMPDEST POP POP JUMP JUMPDEST PUSH1 0x1 PUSH1 0x2 DUP3 ADD SLOAD PUSH2 0x100 SWAP1 DIV PUSH1 0xFF AND PUSH1 0x1 DUP2 GT ISZERO PUSH2 0x35D JUMPI PUSH2 0x35D PUSH2 0x71A JUMP JUMPDEST SUB PUSH2 0x339 JUMPI PUSH1 0x1 DUP2 ADD SLOAD PUSH1 0x40 MLOAD CALLER SWAP2 DUP1 ISZERO PUSH2 0x8FC MUL SWAP2 PUSH1 0x0 DUP2 DUP2 DUP2 DUP6 DUP9 DUP9 CALL SWAP4 POP POP POP POP ISZERO DUP1 ISZERO PUSH2 0x392 JUMPI RETURNDATASIZE PUSH1 0x0 DUP1 RETURNDATACOPY RETURNDATASIZE PUSH1 0x0 REVERT JUMPDEST POP POP POP JUMP JUMPDEST PUSH1 0x0 DUP1 DUP3 GT PUSH2 0x3B8 JUMPI PUSH1 0x40 MLOAD PUSH3 0x461BCD PUSH1 0xE5 SHL DUP2 MSTORE PUSH1 0x4 ADD PUSH2 0x1E9 SWAP1 PUSH2 0x7B0 JUMP JUMPDEST PUSH1 0x0 SLOAD PUSH1 0x40 MLOAD PUSH4 0x23B872DD PUSH1 0xE0 SHL DUP2 MSTORE CALLER PUSH1 0x4 DUP3 ADD MSTORE ADDRESS PUSH1 0x24 DUP3 ADD MSTORE PUSH1 0x44 DUP2 ADD DUP5 SWAP1 MSTORE PUSH1 0x1 PUSH1 0x1 PUSH1 0xA0 SHL SUB SWAP1 SWAP2 AND SWAP1 PUSH4 0x23B872DD SWAP1 PUSH1 0x64 ADD PUSH1 0x20 PUSH1 0x40 MLOAD DUP1 DUP4 SUB DUP2 PUSH1 0x0 DUP8 GAS CALL ISZERO DUP1 ISZERO PUSH2 0x40F JUMPI RETURNDATASIZE PUSH1 0x0 DUP1 RETURNDATACOPY RETURNDATASIZE PUSH1 0x0 REVERT JUMPDEST POP POP POP POP PUSH1 0x40 MLOAD RETURNDATASIZE PUSH1 0x1F NOT PUSH1 0x1F DUP3 ADD AND DUP3 ADD DUP1 PUSH1 0x40 MSTORE POP DUP2 ADD SWAP1 PUSH2 0x433 SWAP2 SWAP1 PUSH2 0x787 JUMP JUMPDEST PUSH2 0x477 JUMPI PUSH1 0x40 MLOAD PUSH3 0x461BCD PUSH1 0xE5 SHL DUP2 MSTORE PUSH1 0x20 PUSH1 0x4 DUP3 ADD MSTORE PUSH1 0x15 PUSH1 0x24 DUP3 ADD MSTORE PUSH21 0x151BDAD95B881D1C985B9CD9995C8819985A5B1959 PUSH1 0x5A SHL PUSH1 0x44 DUP3 ADD MSTORE PUSH1 0x64 ADD PUSH2 0x1E9 JUMP JUMPDEST PUSH2 0x485 PUSH1 0x1 DUP1 SLOAD PUSH1 0x1 ADD SWAP1 SSTORE JUMP JUMPDEST PUSH1 0x0 PUSH2 0x4EB CALLER PUSH2 0x494 PUSH1 0x1 SLOAD SWAP1 JUMP JUMPDEST PUSH1 0x40 MLOAD PUSH12 0xFFFFFFFFFFFFFFFFFFFFFFFF NOT PUSH1 0x60 DUP5 DUP2 SHL DUP3 AND PUSH1 0x20 DUP5 ADD MSTORE PUSH1 0x34 DUP4 ADD DUP5 SWAP1 MSTORE TIMESTAMP PUSH1 0x54 DUP5 ADD MSTORE ADDRESS SWAP1 SHL AND PUSH1 0x74 DUP3 ADD MSTORE PUSH1 0x0 SWAP1 PUSH1 0x88 ADD PUSH1 0x40 MLOAD PUSH1 0x20 DUP2 DUP4 SUB SUB DUP2 MSTORE SWAP1 PUSH1 0x40 MSTORE DUP1 MLOAD SWAP1 PUSH1 0x20 ADD KECCAK256 SWAP1 POP SWAP3 SWAP2 POP POP JUMP JUMPDEST PUSH1 0x40 DUP1 MLOAD PUSH1 0x80 DUP2 ADD DUP3 MSTORE CALLER DUP2 MSTORE PUSH1 0x20 DUP1 DUP3 ADD DUP8 DUP2 MSTORE PUSH1 0x0 DUP4 DUP6 ADD DUP2 DUP2 MSTORE PUSH1 0x60 DUP6 ADD DUP3 DUP2 MSTORE DUP8 DUP4 MSTORE PUSH1 0x2 SWAP5 DUP6 SWAP1 MSTORE SWAP6 SWAP1 SWAP2 KECCAK256 DUP5 MLOAD DUP2 SLOAD PUSH1 0x1 PUSH1 0x1 PUSH1 0xA0 SHL SUB NOT AND PUSH1 0x1 PUSH1 0x1 PUSH1 0xA0 SHL SUB SWAP1 SWAP2 AND OR DUP2 SSTORE SWAP2 MLOAD PUSH1 0x1 DUP1 DUP5 ADD SWAP2 SWAP1 SWAP2 SSTORE SWAP1 MLOAD SWAP3 DUP3 ADD DUP1 SLOAD PUSH1 0xFF NOT DUP2 AND SWAP5 ISZERO ISZERO SWAP5 DUP6 OR DUP3 SSTORE SWAP6 MLOAD SWAP7 SWAP8 POP SWAP4 SWAP6 SWAP2 SWAP5 SWAP2 SWAP4 SWAP3 PUSH2 0xFFFF NOT SWAP1 SWAP3 AND PUSH2 0xFF00 NOT SWAP1 SWAP3 AND SWAP2 SWAP1 SWAP2 OR SWAP1 PUSH2 0x100 SWAP1 DUP5 SWAP1 DUP2 GT ISZERO PUSH2 0x58B JUMPI PUSH2 0x58B PUSH2 0x71A JUMP JUMPDEST MUL OR SWAP1 SSTORE POP POP POP PUSH1 0x3 DUP2 SWAP1 SSTORE PUSH1 0x40 MLOAD CALLER SWAP1 PUSH32 0x38E8D4A98FE61DC78FFC6F9FA9243A138703D7E7680E33A29A4BC0CA6DEA6141 SWAP1 PUSH2 0x5CC SWAP1 DUP7 SWAP1 PUSH1 0x0 SWAP1 PUSH2 0x7F8 JUMP JUMPDEST PUSH1 0x40 MLOAD DUP1 SWAP2 SUB SWAP1 LOG2 SWAP3 SWAP2 POP POP JUMP JUMPDEST PUSH1 0x0 DUP1 CALLVALUE GT PUSH2 0x5FB JUMPI PUSH1 0x40 MLOAD PUSH3 0x461BCD PUSH1 0xE5 SHL DUP2 MSTORE PUSH1 0x4 ADD PUSH2 0x1E9 SWAP1 PUSH2 0x7B0 JUMP JUMPDEST PUSH2 0x609 PUSH1 0x1 DUP1 SLOAD PUSH1 0x1 ADD SWAP1 SSTORE JUMP JUMPDEST PUSH1 0x0 PUSH2 0x618 CALLER PUSH2 0x494 PUSH1 0x1 SLOAD SWAP1 JUMP JUMPDEST PUSH1 0x40 DUP1 MLOAD PUSH1 0x80 DUP2 ADD DUP3 MSTORE CALLER DUP2 MSTORE CALLVALUE PUSH1 0x20 DUP1 DUP4 ADD SWAP2 DUP3 MSTORE PUSH1 0x0 DUP4 DUP6 ADD DUP2 DUP2 MSTORE PUSH1 0x1 PUSH1 0x60 DUP7 ADD DUP2 DUP2 MSTORE DUP9 DUP5 MSTORE PUSH1 0x2 SWAP5 DUP6 SWAP1 MSTORE SWAP7 SWAP1 SWAP3 KECCAK256 DUP6 MLOAD DUP2 SLOAD PUSH1 0x1 PUSH1 0x1 PUSH1 0xA0 SHL SUB NOT AND PUSH1 0x1 PUSH1 0x1 PUSH1 0xA0 SHL SUB SWAP1 SWAP2 AND OR DUP2 SSTORE SWAP4 MLOAD DUP5 DUP4 ADD SSTORE MLOAD SWAP2 DUP4 ADD DUP1 SLOAD PUSH1 0xFF NOT DUP2 AND SWAP4 ISZERO ISZERO SWAP4 DUP5 OR DUP3 SSTORE SWAP6 MLOAD SWAP7 SWAP8 POP SWAP4 SWAP6 SWAP3 SWAP5 SWAP3 SWAP4 SWAP3 PUSH2 0xFFFF NOT AND PUSH2 0xFF00 NOT SWAP1 SWAP3 AND SWAP2 SWAP1 SWAP2 OR SWAP1 PUSH2 0x100 SWAP1 DUP5 SWAP1 DUP2 GT ISZERO PUSH2 0x6B3 JUMPI PUSH2 0x6B3 PUSH2 0x71A JUMP JUMPDEST MUL OR SWAP1 SSTORE POP POP POP PUSH1 0x3 DUP2 SWAP1 SSTORE PUSH1 0x40 MLOAD CALLER SWAP1 PUSH32 0x38E8D4A98FE61DC78FFC6F9FA9243A138703D7E7680E33A29A4BC0CA6DEA6141 SWAP1 PUSH2 0x6F4 SWAP1 CALLVALUE SWAP1 PUSH1 0x0 SWAP1 PUSH2 0x7F8 JUMP JUMPDEST PUSH1 0x40 MLOAD DUP1 SWAP2 SUB SWAP1 LOG2 SWAP2 SWAP1 POP JUMP JUMPDEST PUSH1 0x0 PUSH1 0x20 DUP3 DUP5 SUB SLT ISZERO PUSH2 0x713 JUMPI PUSH1 0x0 DUP1 REVERT JUMPDEST POP CALLDATALOAD SWAP2 SWAP1 POP JUMP JUMPDEST PUSH4 0x4E487B71 PUSH1 0xE0 SHL PUSH1 0x0 MSTORE PUSH1 0x21 PUSH1 0x4 MSTORE PUSH1 0x24 PUSH1 0x0 REVERT JUMPDEST PUSH1 0x2 DUP2 LT PUSH2 0x74E JUMPI PUSH4 0x4E487B71 PUSH1 0xE0 SHL PUSH1 0x0 MSTORE PUSH1 0x21 PUSH1 0x4 MSTORE PUSH1 0x24 PUSH1 0x0 REVERT JUMPDEST SWAP1 MSTORE JUMP JUMPDEST PUSH1 0x1 PUSH1 0x1 PUSH1 0xA0 SHL SUB DUP6 AND DUP2 MSTORE PUSH1 0x20 DUP2 ADD DUP5 SWAP1 MSTORE DUP3 ISZERO ISZERO PUSH1 0x40 DUP3 ADD MSTORE PUSH1 0x80 DUP2 ADD PUSH2 0x77E PUSH1 0x60 DUP4 ADD DUP5 PUSH2 0x730 JUMP JUMPDEST SWAP6 SWAP5 POP POP POP POP POP JUMP JUMPDEST PUSH1 0x0 PUSH1 0x20 DUP3 DUP5 SUB SLT ISZERO PUSH2 0x799 JUMPI PUSH1 0x0 DUP1 REVERT JUMPDEST DUP2 MLOAD DUP1 ISZERO ISZERO DUP2 EQ PUSH2 0x7A9 JUMPI PUSH1 0x0 DUP1 REVERT JUMPDEST SWAP4 SWAP3 POP POP POP JUMP JUMPDEST PUSH1 0x20 DUP1 DUP3 MSTORE PUSH1 0x28 SWAP1 DUP3 ADD MSTORE PUSH32 0x4465706F73697420616D6F756E74206D75737420626520677265617465722074 PUSH1 0x40 DUP3 ADD MSTORE PUSH8 0x68616E207A65726F PUSH1 0xC0 SHL PUSH1 0x60 DUP3 ADD MSTORE PUSH1 0x80 ADD SWAP1 JUMP JUMPDEST DUP3 DUP2 MSTORE PUSH1 0x40 DUP2 ADD PUSH2 0x7A9 PUSH1 0x20 DUP4 ADD DUP5 PUSH2 0x730 JUMP INVALID LOG2 PUSH5 0x6970667358 0x22 SLT KECCAK256 0xDB SWAP1 PUSH13 0x6FF151E5B68CC0BF392306F709 PUSH1 0x28 MLOAD 0xAA 0x29 BLOCKHASH TIMESTAMP SWAP14 STOP TLOAD 0xD4 0xD6 MOD EXTCODEHASH LOG0 0x4E PUSH5 0x736F6C6343 STOP ADDMOD BYTE STOP CALLER ","sha1":"f3cfb5c58a63f18d0ba41755a459f03fd33f9017","source":"// SPDX-License-Identifier: MIT\npragma solidity ^0.8.0;\n\nimport \"@openzeppelin/contracts/token/ERC20/IERC20.sol\";\nimport \"@openzeppelin/contracts/utils/Counters.sol\";\n\ncontract TokenAndEthVault {\n    using Counters for Counters.Counter;\n\n    // Token contract interface\n    IERC20 public token;\n\n    // Key counter for unique generation\n    Counters.Counter private _keyCounter;\n\n    // Deposit types\n    enum DepositType { TOKEN, ETH }\n\n    // Structure for deposit information\n    struct Deposit {\n        address depositor;\n        uint256 amount;\n        bool isWithdrawn;\n        DepositType depositType;\n    }\n\n    mapping(bytes32 => Deposit) public deposits;\n    // mapping(address => bytes32) private latestKeys;\n    bytes32 private latestKeys;\n    // Event for successful deposits\n    event DepositCreated(address indexed depositor, uint256 amount, DepositType depositType);\n\n    // Constructor to set the token contract address\n    constructor(address tokenAddress) {\n        token = IERC20(tokenAddress);\n    }\n\n    // Function to deposit tokens and return a unique key\n    function depositTokens(uint256 amount) external returns (bytes32) {\n        require(amount > 0, \"Deposit amount must be greater than zero\");\n        require(token.transferFrom(msg.sender, address(this), amount), \"Token transfer failed\");\n\n        _keyCounter.increment();\n        bytes32 key = generateKey(msg.sender, _keyCounter.current());\n\n        deposits[key] = Deposit({\n            depositor: msg.sender,\n            amount: amount,\n            isWithdrawn: false,\n            depositType: DepositType.TOKEN\n        });\n        // latestKeys[msg.sender] =  key;\n        latestKeys = key; // Corrected mapping\n\n        emit DepositCreated( msg.sender, amount, DepositType.TOKEN);\n\n        return key;\n    }\n\n    // Function to deposit ETH and return a unique key\n    function depositETH() external payable returns (bytes32) {\n        require(msg.value > 0, \"Deposit amount must be greater than zero\");\n\n        _keyCounter.increment();\n        bytes32 key = generateKey(msg.sender, _keyCounter.current());\n\n        deposits[key] = Deposit({\n            depositor: msg.sender,\n            amount: msg.value,\n            isWithdrawn: false,\n            depositType: DepositType.ETH\n        });\n        // latestKeys[msg.sender] = key;\n        latestKeys = key; // Corrected mapping\n\n        emit DepositCreated( msg.sender, msg.value, DepositType.TOKEN); // Corrected event \n        return key;\n    }\n\n    // Function to withdraw based on key, either token or ETH\n    function withdraw(bytes32 key) external {\n        Deposit storage depositInfo = deposits[key];\n\n        require(!depositInfo.isWithdrawn, \"Funds have already been withdrawn\");\n        require(depositInfo.amount > 0, \"No deposit found for this key\");\n\n        depositInfo.isWithdrawn = true;\n\n        if (depositInfo.depositType == DepositType.TOKEN) {\n            require(token.transfer(msg.sender, depositInfo.amount), \"Token transfer failed\");\n        } else if (depositInfo.depositType == DepositType.ETH) {\n            payable(msg.sender).transfer(depositInfo.amount);\n        }\n    }\n\n    // Internal function to generate a unique key\n    function generateKey(address depositor, uint256 counter) internal view returns (bytes32) {\n        return keccak256(abi.encodePacked(depositor, counter, block.timestamp, address(this)));\n    }\n\n    // Function to get the latest deposit key\n    // function view_key() external view returns (bytes32) {\n    //     if (latestKeys[msg.sender] == bytes32(0)){\n    //         return bytes32(0);\n    //     }\n    //     // require(latestKeys[msg.sender] !=bytes32(0), \"No deposits yet\");\n    //     return latestKeys[msg.sender];\n    // }\n    function view_key() external view returns (bytes32) {\n        if (latestKeys == bytes32(0)){\n            return bytes32(0);\n        }\n        // require(latestKeys !=bytes32(0), \"No deposits yet\");\n        return latestKeys;\n    }\n}","sourcePath":"contracts/TokenVault.sol","type":"contract","deployment":{"address":"0xa5b43797902Ee4Dce48F82e5c36e19d52E757655","chainid":"11155111","blockHeight":6981641}}